{
  "_format": "hh-sol-artifact-1",
  "contractName": "BuffiTruckTest",
  "sourceName": "contracts/BuffiTruck.sol",
  "abi": [
    {
      "inputs": [
        {
          "internalType": "address",
          "name": "_minter",
          "type": "address"
        },
        {
          "internalType": "uint256",
          "name": "amount",
          "type": "uint256"
        }
      ],
      "stateMutability": "nonpayable",
      "type": "constructor"
    },
    {
      "inputs": [],
      "name": "NotPermitted",
      "type": "error"
    },
    {
      "anonymous": false,
      "inputs": [
        {
          "indexed": true,
          "internalType": "address",
          "name": "owner",
          "type": "address"
        },
        {
          "indexed": true,
          "internalType": "address",
          "name": "spender",
          "type": "address"
        },
        {
          "indexed": false,
          "internalType": "uint256",
          "name": "value",
          "type": "uint256"
        }
      ],
      "name": "Approval",
      "type": "event"
    },
    {
      "anonymous": false,
      "inputs": [
        {
          "indexed": true,
          "internalType": "address",
          "name": "from",
          "type": "address"
        },
        {
          "indexed": true,
          "internalType": "address",
          "name": "to",
          "type": "address"
        },
        {
          "indexed": false,
          "internalType": "uint256",
          "name": "value",
          "type": "uint256"
        }
      ],
      "name": "Transfer",
      "type": "event"
    },
    {
      "inputs": [
        {
          "internalType": "address",
          "name": "owner",
          "type": "address"
        },
        {
          "internalType": "address",
          "name": "spender",
          "type": "address"
        }
      ],
      "name": "allowance",
      "outputs": [
        {
          "internalType": "uint256",
          "name": "",
          "type": "uint256"
        }
      ],
      "stateMutability": "view",
      "type": "function"
    },
    {
      "inputs": [
        {
          "internalType": "address",
          "name": "spender",
          "type": "address"
        },
        {
          "internalType": "uint256",
          "name": "amount",
          "type": "uint256"
        }
      ],
      "name": "approve",
      "outputs": [
        {
          "internalType": "bool",
          "name": "",
          "type": "bool"
        }
      ],
      "stateMutability": "nonpayable",
      "type": "function"
    },
    {
      "inputs": [
        {
          "internalType": "address",
          "name": "account",
          "type": "address"
        }
      ],
      "name": "balanceOf",
      "outputs": [
        {
          "internalType": "uint256",
          "name": "",
          "type": "uint256"
        }
      ],
      "stateMutability": "view",
      "type": "function"
    },
    {
      "inputs": [],
      "name": "decimals",
      "outputs": [
        {
          "internalType": "uint8",
          "name": "",
          "type": "uint8"
        }
      ],
      "stateMutability": "view",
      "type": "function"
    },
    {
      "inputs": [
        {
          "internalType": "address",
          "name": "spender",
          "type": "address"
        },
        {
          "internalType": "uint256",
          "name": "subtractedValue",
          "type": "uint256"
        }
      ],
      "name": "decreaseAllowance",
      "outputs": [
        {
          "internalType": "bool",
          "name": "",
          "type": "bool"
        }
      ],
      "stateMutability": "nonpayable",
      "type": "function"
    },
    {
      "inputs": [
        {
          "internalType": "address",
          "name": "spender",
          "type": "address"
        },
        {
          "internalType": "uint256",
          "name": "addedValue",
          "type": "uint256"
        }
      ],
      "name": "increaseAllowance",
      "outputs": [
        {
          "internalType": "bool",
          "name": "",
          "type": "bool"
        }
      ],
      "stateMutability": "nonpayable",
      "type": "function"
    },
    {
      "inputs": [
        {
          "internalType": "address",
          "name": "dest",
          "type": "address"
        },
        {
          "internalType": "uint256",
          "name": "amount",
          "type": "uint256"
        }
      ],
      "name": "mint",
      "outputs": [
        {
          "internalType": "uint256",
          "name": "",
          "type": "uint256"
        }
      ],
      "stateMutability": "nonpayable",
      "type": "function"
    },
    {
      "inputs": [],
      "name": "minter",
      "outputs": [
        {
          "internalType": "address",
          "name": "",
          "type": "address"
        }
      ],
      "stateMutability": "view",
      "type": "function"
    },
    {
      "inputs": [],
      "name": "name",
      "outputs": [
        {
          "internalType": "string",
          "name": "",
          "type": "string"
        }
      ],
      "stateMutability": "view",
      "type": "function"
    },
    {
      "inputs": [],
      "name": "symbol",
      "outputs": [
        {
          "internalType": "string",
          "name": "",
          "type": "string"
        }
      ],
      "stateMutability": "view",
      "type": "function"
    },
    {
      "inputs": [],
      "name": "totalSupply",
      "outputs": [
        {
          "internalType": "uint256",
          "name": "",
          "type": "uint256"
        }
      ],
      "stateMutability": "view",
      "type": "function"
    },
    {
      "inputs": [
        {
          "internalType": "address",
          "name": "recipient",
          "type": "address"
        },
        {
          "internalType": "uint256",
          "name": "amount",
          "type": "uint256"
        }
      ],
      "name": "transfer",
      "outputs": [
        {
          "internalType": "bool",
          "name": "",
          "type": "bool"
        }
      ],
      "stateMutability": "nonpayable",
      "type": "function"
    },
    {
      "inputs": [
        {
          "internalType": "address",
          "name": "sender",
          "type": "address"
        },
        {
          "internalType": "address",
          "name": "recipient",
          "type": "address"
        },
        {
          "internalType": "uint256",
          "name": "amount",
          "type": "uint256"
        }
      ],
      "name": "transferFrom",
      "outputs": [
        {
          "internalType": "bool",
          "name": "",
          "type": "bool"
        }
      ],
      "stateMutability": "nonpayable",
      "type": "function"
    },
    {
      "inputs": [
        {
          "internalType": "address",
          "name": "newMinter",
          "type": "address"
        }
      ],
      "name": "updateMinter",
      "outputs": [
        {
          "internalType": "address",
          "name": "",
          "type": "address"
        }
      ],
      "stateMutability": "nonpayable",
      "type": "function"
    }
  ],
  "bytecode": "0x60806040523480156200001157600080fd5b5060405162000dca38038062000dca833981016040819052620000349162000261565b604080518082018252601081526f213ab33334aa393ab1b5902a37b5b2b760811b602080830191825283518085019094526004845263212aa32360e11b9084015281519192916200008891600391620001bb565b5080516200009e906004906020840190620001bb565b5050600580546001600160a01b0319166001600160a01b038516908117909155620000cb915082620000d3565b505062000301565b6001600160a01b0382166200012e5760405162461bcd60e51b815260206004820152601f60248201527f45524332303a206d696e7420746f20746865207a65726f206164647265737300604482015260640160405180910390fd5b80600260008282546200014291906200029d565b90915550506001600160a01b03821660009081526020819052604081208054839290620001719084906200029d565b90915550506040518181526001600160a01b038316906000907fddf252ad1be2c89b69c2b068fc378daa952ba7f163c4a11628f55a4df523b3ef9060200160405180910390a35050565b828054620001c990620002c4565b90600052602060002090601f016020900481019282620001ed576000855562000238565b82601f106200020857805160ff191683800117855562000238565b8280016001018555821562000238579182015b82811115620002385782518255916020019190600101906200021b565b50620002469291506200024a565b5090565b5b808211156200024657600081556001016200024b565b600080604083850312156200027557600080fd5b82516001600160a01b03811681146200028d57600080fd5b6020939093015192949293505050565b60008219821115620002bf57634e487b7160e01b600052601160045260246000fd5b500190565b600181811c90821680620002d957607f821691505b60208210811415620002fb57634e487b7160e01b600052602260045260246000fd5b50919050565b610ab980620003116000396000f3fe608060405234801561001057600080fd5b50600436106100ea5760003560e01c806340c10f191161008c57806395d89b411161006657806395d89b41146101f1578063a457c2d7146101f9578063a9059cbb1461020c578063dd62ed3e1461021f57600080fd5b806340c10f19146101a25780634eb03f6e146101b557806370a08231146101c857600080fd5b806318160ddd116100c857806318160ddd1461015b57806323b872dd1461016d578063313ce56714610180578063395093511461018f57600080fd5b806306fdde03146100ef578063075461721461010d578063095ea7b314610138575b600080fd5b6100f7610258565b60405161010491906109d3565b60405180910390f35b600554610120906001600160a01b031681565b6040516001600160a01b039091168152602001610104565b61014b6101463660046109a9565b6102ea565b6040519015158152602001610104565b6002545b604051908152602001610104565b61014b61017b36600461096d565b610300565b60405160128152602001610104565b61014b61019d3660046109a9565b6103af565b61015f6101b03660046109a9565b6103eb565b6101206101c3366004610918565b610429565b61015f6101d6366004610918565b6001600160a01b031660009081526020819052604090205490565b6100f761047a565b61014b6102073660046109a9565b610489565b61014b61021a3660046109a9565b610522565b61015f61022d36600461093a565b6001600160a01b03918216600090815260016020908152604080832093909416825291909152205490565b60606003805461026790610a4e565b80601f016020809104026020016040519081016040528092919081815260200182805461029390610a4e565b80156102e05780601f106102b5576101008083540402835291602001916102e0565b820191906000526020600020905b8154815290600101906020018083116102c357829003601f168201915b5050505050905090565b60006102f733848461052f565b50600192915050565b600061030d848484610653565b6001600160a01b0384166000908152600160209081526040808320338452909152902054828110156103975760405162461bcd60e51b815260206004820152602860248201527f45524332303a207472616e7366657220616d6f756e74206578636565647320616044820152676c6c6f77616e636560c01b60648201526084015b60405180910390fd5b6103a4853385840361052f565b506001949350505050565b3360008181526001602090815260408083206001600160a01b038716845290915281205490916102f79185906103e6908690610a28565b61052f565b6005546000906001600160a01b03163314610419576040516339218f3b60e01b815260040160405180910390fd5b6104238383610822565b50919050565b6005546000906001600160a01b03163314610457576040516339218f3b60e01b815260040160405180910390fd5b50600580546001600160a01b0319166001600160a01b038316179055805b919050565b60606004805461026790610a4e565b3360009081526001602090815260408083206001600160a01b03861684529091528120548281101561050b5760405162461bcd60e51b815260206004820152602560248201527f45524332303a2064656372656173656420616c6c6f77616e63652062656c6f77604482015264207a65726f60d81b606482015260840161038e565b610518338585840361052f565b5060019392505050565b60006102f7338484610653565b6001600160a01b0383166105915760405162461bcd60e51b8152602060048201526024808201527f45524332303a20617070726f76652066726f6d20746865207a65726f206164646044820152637265737360e01b606482015260840161038e565b6001600160a01b0382166105f25760405162461bcd60e51b815260206004820152602260248201527f45524332303a20617070726f766520746f20746865207a65726f206164647265604482015261737360f01b606482015260840161038e565b6001600160a01b0383811660008181526001602090815260408083209487168084529482529182902085905590518481527f8c5be1e5ebec7d5bd14f71427d1e84f3dd0314c0f7b2291e5b200ac8c7c3b925910160405180910390a3505050565b6001600160a01b0383166106b75760405162461bcd60e51b815260206004820152602560248201527f45524332303a207472616e736665722066726f6d20746865207a65726f206164604482015264647265737360d81b606482015260840161038e565b6001600160a01b0382166107195760405162461bcd60e51b815260206004820152602360248201527f45524332303a207472616e7366657220746f20746865207a65726f206164647260448201526265737360e81b606482015260840161038e565b6001600160a01b038316600090815260208190526040902054818110156107915760405162461bcd60e51b815260206004820152602660248201527f45524332303a207472616e7366657220616d6f756e7420657863656564732062604482015265616c616e636560d01b606482015260840161038e565b6001600160a01b038085166000908152602081905260408082208585039055918516815290812080548492906107c8908490610a28565b92505081905550826001600160a01b0316846001600160a01b03167fddf252ad1be2c89b69c2b068fc378daa952ba7f163c4a11628f55a4df523b3ef8460405161081491815260200190565b60405180910390a350505050565b6001600160a01b0382166108785760405162461bcd60e51b815260206004820152601f60248201527f45524332303a206d696e7420746f20746865207a65726f206164647265737300604482015260640161038e565b806002600082825461088a9190610a28565b90915550506001600160a01b038216600090815260208190526040812080548392906108b7908490610a28565b90915550506040518181526001600160a01b038316906000907fddf252ad1be2c89b69c2b068fc378daa952ba7f163c4a11628f55a4df523b3ef9060200160405180910390a35050565b80356001600160a01b038116811461047557600080fd5b60006020828403121561092a57600080fd5b61093382610901565b9392505050565b6000806040838503121561094d57600080fd5b61095683610901565b915061096460208401610901565b90509250929050565b60008060006060848603121561098257600080fd5b61098b84610901565b925061099960208501610901565b9150604084013590509250925092565b600080604083850312156109bc57600080fd5b6109c583610901565b946020939093013593505050565b600060208083528351808285015260005b81811015610a00578581018301518582016040015282016109e4565b81811115610a12576000604083870101525b50601f01601f1916929092016040019392505050565b60008219821115610a4957634e487b7160e01b600052601160045260246000fd5b500190565b600181811c90821680610a6257607f821691505b6020821081141561042357634e487b7160e01b600052602260045260246000fdfea26469706673582212207c8f21bede7c255848c0468bdf44cec5dc1daf2c033ece91a324d39d7cc890b264736f6c63430008050033",
  "linkReferences": {},
  "deployedLinkReferences": {}
}