{
  "_format": "hh-sol-artifact-1",
  "contractName": "FaucetTest",
  "sourceName": "contracts/Faucet.sol",
  "abi": [
    {
      "inputs": [
        {
          "internalType": "address",
          "name": "_admin",
          "type": "address"
        },
        {
          "internalType": "address",
          "name": "_token",
          "type": "address"
        },
        {
          "internalType": "uint8",
          "name": "_allowedHits",
          "type": "uint8"
        },
        {
          "internalType": "uint256[]",
          "name": "_lvls",
          "type": "uint256[]"
        },
        {
          "internalType": "uint256[]",
          "name": "_tokensPerLvl",
          "type": "uint256[]"
        }
      ],
      "stateMutability": "nonpayable",
      "type": "constructor"
    },
    {
      "inputs": [],
      "name": "AlreadyHit",
      "type": "error"
    },
    {
      "inputs": [],
      "name": "NotPermitted",
      "type": "error"
    },
    {
      "inputs": [
        {
          "internalType": "uint256[]",
          "name": "_lvls",
          "type": "uint256[]"
        },
        {
          "internalType": "uint256[]",
          "name": "_lvlTokens",
          "type": "uint256[]"
        }
      ],
      "name": "addNewLevels",
      "outputs": [],
      "stateMutability": "nonpayable",
      "type": "function"
    },
    {
      "inputs": [],
      "name": "admin",
      "outputs": [
        {
          "internalType": "address",
          "name": "",
          "type": "address"
        }
      ],
      "stateMutability": "view",
      "type": "function"
    },
    {
      "inputs": [],
      "name": "allowedHits",
      "outputs": [
        {
          "internalType": "uint8",
          "name": "",
          "type": "uint8"
        }
      ],
      "stateMutability": "view",
      "type": "function"
    },
    {
      "inputs": [
        {
          "internalType": "uint256",
          "name": "lvl",
          "type": "uint256"
        }
      ],
      "name": "hitMe",
      "outputs": [
        {
          "internalType": "address",
          "name": "",
          "type": "address"
        }
      ],
      "stateMutability": "nonpayable",
      "type": "function"
    },
    {
      "inputs": [
        {
          "internalType": "address",
          "name": "",
          "type": "address"
        }
      ],
      "name": "hits",
      "outputs": [
        {
          "internalType": "uint256",
          "name": "",
          "type": "uint256"
        }
      ],
      "stateMutability": "view",
      "type": "function"
    },
    {
      "inputs": [
        {
          "internalType": "uint256",
          "name": "",
          "type": "uint256"
        }
      ],
      "name": "lvls",
      "outputs": [
        {
          "internalType": "uint256",
          "name": "",
          "type": "uint256"
        }
      ],
      "stateMutability": "view",
      "type": "function"
    },
    {
      "inputs": [
        {
          "internalType": "uint256",
          "name": "",
          "type": "uint256"
        }
      ],
      "name": "myFood",
      "outputs": [
        {
          "internalType": "uint256",
          "name": "",
          "type": "uint256"
        }
      ],
      "stateMutability": "view",
      "type": "function"
    },
    {
      "inputs": [
        {
          "internalType": "uint8",
          "name": "_newHits",
          "type": "uint8"
        }
      ],
      "name": "setAllowedHits",
      "outputs": [
        {
          "internalType": "uint256",
          "name": "",
          "type": "uint256"
        }
      ],
      "stateMutability": "nonpayable",
      "type": "function"
    },
    {
      "inputs": [],
      "name": "token",
      "outputs": [
        {
          "internalType": "address",
          "name": "",
          "type": "address"
        }
      ],
      "stateMutability": "view",
      "type": "function"
    }
  ],
  "bytecode": "0x60806040523480156200001157600080fd5b5060405162000dc338038062000dc3833981016040819052620000349162000233565b60016000558051825114620000785760405162461bcd60e51b8152602060048201526006602482015265042dac2e8c6d60d31b604482015260640160405180910390fd5b60028054600180546001600160a01b0319166001600160a01b038881169190911790915587166001600160a81b031990911617600160a01b60ff86160217905560005b82518110156200016057818181518110620000da57620000da62000307565b602002602001015160046000858481518110620000fb57620000fb62000307565b602002602001015181526020019081526020016000208190555060038382815181106200012c576200012c62000307565b60209081029190910181015182546001810184556000938452919092200155806200015781620002dd565b915050620000bb565b50505050505062000333565b80516001600160a01b03811681146200018457600080fd5b919050565b600082601f8301126200019b57600080fd5b815160206001600160401b0380831115620001ba57620001ba6200031d565b8260051b604051601f19603f83011681018181108482111715620001e257620001e26200031d565b604052848152838101925086840182880185018910156200020257600080fd5b600092505b858310156200022757805184529284019260019290920191840162000207565b50979650505050505050565b600080600080600060a086880312156200024c57600080fd5b62000257866200016c565b945062000267602087016200016c565b9350604086015160ff811681146200027e57600080fd5b60608701519093506001600160401b03808211156200029c57600080fd5b620002aa89838a0162000189565b93506080880151915080821115620002c157600080fd5b50620002d08882890162000189565b9150509295509295909350565b60006000198214156200030057634e487b7160e01b600052601160045260246000fd5b5060010190565b634e487b7160e01b600052603260045260246000fd5b634e487b7160e01b600052604160045260246000fd5b610a8080620003436000396000f3fe608060405234801561001057600080fd5b50600436106100935760003560e01c80638a4d2c90116100665780638a4d2c901461012f578063f851a44014610144578063fc0c546a14610157578063fde65d151461016a578063fdf3a8f41461017d57600080fd5b80633a31b5e0146100985780636440c3c3146100cb57806373c768d7146100de5780637d4e4a1b14610109575b600080fd5b6100b86100a63660046108c2565b60046020526000908152604090205481565b6040519081526020015b60405180910390f35b6100b86100d93660046108c2565b61019d565b6100f16100ec3660046108c2565b6101be565b6040516001600160a01b0390911681526020016100c2565b60025461011d90600160a01b900460ff1681565b60405160ff90911681526020016100c2565b61014261013d36600461083c565b6102e0565b005b6002546100f1906001600160a01b031681565b6001546100f1906001600160a01b031681565b6100b86101783660046108db565b6103e5565b6100b861018b366004610813565b60056020526000908152604090205481565b600381815481106101ad57600080fd5b600091825260209091200154905081565b6000600260005414156102185760405162461bcd60e51b815260206004820152601f60248201527f5265656e7472616e637947756172643a207265656e7472616e742063616c6c0060448201526064015b60405180910390fd5b6002600081815590543382526005602052604090912054600160a01b90910460ff161161025857604051632e199ba160e01b815260040160405180910390fd5b60008281526004602052604090205460011115610288576040516339218f3b60e01b815260040160405180910390fd5b6000828152600460205260409020546001546102ae906001600160a01b0316338361046c565b3360009081526005602052604081208054600192906102ce90849061097e565b90915550506001600055503392915050565b6002546001600160a01b0316331461030b576040516339218f3b60e01b815260040160405180910390fd5b80518251146103455760405162461bcd60e51b8152602060048201526006602482015265042dac2e8c6d60d31b604482015260640161020f565b60005b82518110156103e057818181518110610363576103636109f7565b602002602001015160046000858481518110610381576103816109f7565b602002602001015181526020019081526020016000208190555060038382815181106103af576103af6109f7565b60209081029190910181015182546001810184556000938452919092200155806103d8816109c6565b915050610348565b505050565b6002546000906001600160a01b03163314610413576040516339218f3b60e01b815260040160405180910390fd5b610446604051806060016040528060278152602001610a246027913960025460ff600160a01b90910481169085166104be565b506002805460ff60a01b1916600160a01b60ff9384168102919091179182905590041690565b604080516001600160a01b038416602482015260448082018490528251808303909101815260649091019091526020810180516001600160e01b031663a9059cbb60e01b1790526103e0908490610505565b6103e08383836040516024016104d693929190610959565b60408051601f198184030181529190526020810180516001600160e01b031663969cdd0360e01b1790526105d7565b600061055a826040518060400160405280602081526020017f5361666545524332303a206c6f772d6c6576656c2063616c6c206661696c6564815250856001600160a01b03166105f89092919063ffffffff16565b8051909150156103e0578080602001905181019061057891906108a0565b6103e05760405162461bcd60e51b815260206004820152602a60248201527f5361666545524332303a204552433230206f7065726174696f6e20646964206e6044820152691bdd081cdd58d8d9595960b21b606482015260840161020f565b80516a636f6e736f6c652e6c6f67602083016000808483855afa5050505050565b60606106078484600085610611565b90505b9392505050565b6060824710156106725760405162461bcd60e51b815260206004820152602660248201527f416464726573733a20696e73756666696369656e742062616c616e636520666f6044820152651c8818d85b1b60d21b606482015260840161020f565b843b6106c05760405162461bcd60e51b815260206004820152601d60248201527f416464726573733a2063616c6c20746f206e6f6e2d636f6e7472616374000000604482015260640161020f565b600080866001600160a01b031685876040516106dc919061092a565b60006040518083038185875af1925050503d8060008114610719576040519150601f19603f3d011682016040523d82523d6000602084013e61071e565b606091505b509150915061072e828286610739565b979650505050505050565b6060831561074857508161060a565b8251156107585782518084602001fd5b8160405162461bcd60e51b815260040161020f9190610946565b600082601f83011261078357600080fd5b8135602067ffffffffffffffff808311156107a0576107a0610a0d565b8260051b604051601f19603f830116810181811084821117156107c5576107c5610a0d565b604052848152838101925086840182880185018910156107e457600080fd5b600092505b858310156108075780358452928401926001929092019184016107e9565b50979650505050505050565b60006020828403121561082557600080fd5b81356001600160a01b038116811461060a57600080fd5b6000806040838503121561084f57600080fd5b823567ffffffffffffffff8082111561086757600080fd5b61087386838701610772565b9350602085013591508082111561088957600080fd5b5061089685828601610772565b9150509250929050565b6000602082840312156108b257600080fd5b8151801515811461060a57600080fd5b6000602082840312156108d457600080fd5b5035919050565b6000602082840312156108ed57600080fd5b813560ff8116811461060a57600080fd5b60008151808452610916816020860160208601610996565b601f01601f19169290920160200192915050565b6000825161093c818460208701610996565b9190910192915050565b60208152600061060a60208301846108fe565b60608152600061096c60608301866108fe565b60208301949094525060400152919050565b60008219821115610991576109916109e1565b500190565b60005b838110156109b1578181015183820152602001610999565b838111156109c0576000848401525b50505050565b60006000198214156109da576109da6109e1565b5060010190565b634e487b7160e01b600052601160045260246000fd5b634e487b7160e01b600052603260045260246000fd5b634e487b7160e01b600052604160045260246000fdfe4368616e67696e6720616c6c6f77656420686974732066726f6d202725732720746f2027257327a26469706673582212201ff0b9a0489a63cc0e60d1e8a2acb9e6fa43271788f704d4be31e15b6489d0da64736f6c63430008050033",
  "linkReferences": {},
  "deployedLinkReferences": {}
}